:020000040800F2
:100000000006002089010008910100089301000802
:100010009501000897010008990100080000000000
:100020000000000000000000000000009B0100082C
:100030009D010008000000009F010008A1010008C8
:10004000A3010008A3010008A3010008A301000800
:10005000A3010008A3010008A3010008A3010008F0
:10006000A3010008A3010008A3010008A3010008E0
:10007000A3010008A3010008A3010008A3010008D0
:10008000A3010008A3010008A3010008A3010008C0
:10009000A3010008A3010008A3010008A3010008B0
:1000A000A3010008A3010008A3010008A3010008A0
:1000B000A3010008A3010008A3010008A301000890
:1000C000A3010008A3010008A3010008A301000880
:1000D000A3010008A3010008A3010008A301000870
:1000E000A3010008A3010008A3010008A301000860
:1000F000A3010008A3010008A3010008A301000850
:10010000A3010008A3010008A3010008A30100083F
:10011000A3010008A3010008A3010008A30100082F
:10012000A3010008A3010008A3010008A30100081F
:10013000A3010008A3010008A3010008A30100080F
:10014000A3010008A3010008A3010008A3010008FF
:10015000A3010008A3010008A3010008A3010008EF
:10016000A3010008A3010008A3010008A3010008DF
:10017000A3010008A3010008A3010008000000007B
:10018000A3010008A3010008094880470948004767
:10019000FEE7FEE7FEE7FEE7FEE7FEE7FEE7FEE737
:1001A000FEE7FEE704480549054A064B7047000094
:1001B000D10100082D0200080000002000060020E8
:1001C00000020020000200207047704770470000C6
:1001D0004EF68851CEF20001086840F470000860C5
:1001E00041F20002C4F20202106840F00100106007
:1001F00041F20801C4F202010020086011684FF6C4
:10020000FF73CEF6F6231940116041F20C03C4F2DD
:1002100002034FF480511960116821F480211160AC
:1002200041F21801C4F2020108607047AA200021BF
:040230004218FEE78B
:040000050800018965
:00000001FF
